:1001D0000000F514F5B0F645F6D0F754F7D1F8461F
:1001E000F8B5F91EF981F9DEFA36FA8AFAD8FB2257
:1001F000FB68FBAAFBE8FC23FC5AFC8FFCC0FCEF6D
:10020000FD1BFD45FD6CFD91FDB4FDD5FDF4FE111A
:10021000FE2DFE47FE60FE77FE8DFEA2FEB6FEC8F6
:10022000FEDAFEEAFEFAFF08FF16FF23FF30FF3B6F
:1002300008090B0C0E1001084B6579626F6172643E
:1002400000080404024D6574726F544F4E45000956
:10025000090B0D0E101214151010101010101010A4
:10026000085363616C650005090B0C090B0C0E0B40
:10027000100C0E0B0C090B080808080808080808E1
:100280000808080808080808105468726F7567683D
:1002900020746865204669726520616E6420466C32
:1002A000616D6573001B151C15141C14121A1910AE
:1002B000080810080820101009596F757220507234
:1002C000696E636520436861726D696E670014171B
:1002D000000B171E1B0B1712000600000006001073
:1002E0000004101C1B041919190600000006000860
:1002F000040804080408040804080408040804089E
:100300000408040804080408040804080408042075
:10031000536865204C6F766573204D6520284E6FBD
:04032000742900122A
:1007120002281200142D436F6E6E6F722C204A61F4
:100722006D65732C204A616B65000127010143004E
:100662005387BF75985053877FE4F5BA43A240FD84
:100672007C1824F0FD74FF3CFCE4F5BD8CBFAF0593
:10068200EFF5BE75BD035391FE43920143910253B0
:0C06920092FDC20053B8EF53B7EFD2AC9A
:01069E002239
:0300230002000ECA
:0D000E00309802C298309904C299C20032A5
:080756002000FDD2008F992262
:03001E00AF992275
:03001B0002074D8C
:09074D0085248D85448BB297329E
:03000B00020403E9
:10040300C0E0C0F0C083C082C0D075D018D3E52B44
:100413009400E52A94004010758CFE758A8FE52BB5
:10042300152B707B152A80770541E541C395424022
:100433000B754100E54CB5430385434B758CFE7545
:100443008A8FAB48AA49A94A854182758300120560
:1004530042FF7E00AC25AD2612056F8E2A8F2BAB93
:1004630045AA46A94785418275830012054225E0C6
:1004730024D0F582E43401F583E493FC740193FD05
:10048300ECF524EDF54485248D85448BED4C700407
:10049300C28E8002D28EE54BB54304C28EC28CD08D
:0A04A300D0D082D083D0F0D0E03238
:10002600E4F584F585F591759204F5A4F5A5F52119
:10003600F52275233C1206A5120662D2AFD2A8435A
:100046008801E5211460641470030200F41470033F
:1000560002011C147003020184240460030201CA15
:100066007522007523781206A57552FF7553027521
:100076005478900288E493F5558527567BFF7A02DB
:1000860079681204C67BFF7A0279899002A5120666
:10009600C7C2A4D285D2A7D286D29620A1FD1206C7
:1000A600ED30A1FD0521120006809712069F7552BC
:1000B600FF7553027554AF9002B8E493F555852742
:1000C600567BFF7A0279A61204C67BFF7A0279B9BB
:1000D6009002CE1206C7D2A4C285D2A7D286D296E5
:1000E60020A1FD1206ED30A1FD05211200067BFFC1
:1000F6007A027938900241E493FD1206CA1203246B
:10010600D2A4D285C2A7D28620A1F21206ED30A1D2
:10011600FD052112000612069F1204AD7BFF7A022E
:10012600794590024FE493FD1206CAD2A4D285D235
:10013600A7C286D29620831B1206ED3083FD1200DD
:100146000674FB2523F52374FF3522F5221206A536
:100156001204AD20A21A1206ED30A2FD120006749A
:10016600052523F523E43522F5221206A51204AD52
:1001760020A1C21206ED30A1FD05211200061206CD
:100186009F7552FF7553027554EF90030FE493F574
:10019600558527567BFF7A0279CF1204C67BFF7AF4
:1001A600037910900323E493FD1206CAD2A4D285E4
:1001B600D2A7D286C29620A1FD1206ED30A1FD057A
:0A01C60021120006E4F521020048B2
:1004AD007552FF755302755442900244E493F5550D
:0904BD008527567B007A0079289E
:1004C60085564C85274B75891143A88AE4F54185E5
:1004D60055428B458A4689478552488553498554F6
:1004E6004A758CFE758A8FAB48AA49A94A8541820E
:1004F600F583120542FF7E00AC25AD2612056F8EF0
:100506002A8F2BAB45AA46A94785418275830012DF
:10051600054225E024D0F582E43401F583E493FC1A
:10052600740193FDECF524EDF54485248D85448B0B
:0C053600D28CED4C7003C28E22D28E22BB
:06069F0075220075233CEA
:1006A500AC22AD237E277F10120581EF7805CEC3DE
:1006B50013CE13D8F9FF7C007D3C12056F8E258F74
:0206C5002622EB
:05000600C28CC28E2235
:0406ED007F647E00A8
:0406F1008E4F8F5049
:1006F500E4FBFAAE4FAF507C007D6412056FC3EB8F
:0C0705009FEA9E50070BBB00010A80E732
:0107110022C5
:1003240020A0221206ED30A0FD7552FF7553027510
:100334005437900236E493F5558543567BFF7A0291
:1003440079301204C62081221206ED3081FD7552E7
:10035400FF755302755437900236E493F55585437F
:10036400567BFF7A0279311204C620A3221206EDCD
:1003740030A3FD7552FF755302755437900236E46D
:1003840093F5558543567BFF7A0279321204C620D1
:1003940082221206ED3082FD7552FF7553027554A8
:1003A40037900236E493F5558543567BFF7A0279FC
:1003B400331204C62094221206ED3094FD7552FFC8
:1003C400755302755437900236E493F555854356B8
:1003D4007BFF7A0279341204C62080221206ED30A3
:1003E40080FD7552FF755302755437900236E493BD
:0F03F400F5558543567BFF7A0279351204C622F0
:0306C700E493FDBC
:0606CA008B4F8A5089519C
:1006D000E4FEEEC39D5015AB4FAA50A9518E827512
:0C06E0008300120542FF1207560E80E650
:0106EC0022EB
:03000300020733BE
:10073300C0E0C0F0C0D075D008C2841206ED12002C
:0A07430006D284D0D0D0F0D0E0320E
:030000000205D620
:0C05D600787FE4F6D8FD75815602061D02
:10054200BB010CE58229F582E5833AF583E022506E
:1005520006E92582F8E622BBFE06E92582F8E222B8
:0D056200E58229F582E5833AF583E49322D2
:10056F00EF8DF0A4A8F0CF8CF0A428CE8DF0A42EA0
:02057F00FE225A
:10058100BC000BBE0029EF8DF084FFADF022E4CC5E
:10059100F875F008EF2FFFEE33FEEC33FCEE9DEC27
:1005A100984005FCEE9DFE0FD5F0E9E4CEFD22ED6D
:1005B100F8F5F0EE8420D21CFEADF075F008EF2FB7
:1005C100FFED33FD4007985006D5F0F222C398FDA8
:0505D1000FD5F0EA2245
:1005E200020026E493A3F8E493A34003F68001F209
:1005F20008DFF48029E493A3F85407240CC8C3331A
:10060200C4540F4420C8834004F456800146F6DFE8
:10061200E4800B0102040810204080900712E47E5F
:10062200019360BCA3FF543F30E509541FFEE493DD
:10063200A360010ECF54C025E060A840B8E493A3A4
:10064200FAE493A3F8E493A3C8C582C8CAC583CACF
:10065200F0A3C8C582C8CAC583CADFE9DEE780BE87
:0107320000C6
:00000001FF
