:100341000000EFA3EFA3EFA3EFA3EFA3EFA3EFA3AE
:10035100E47AE610E77CE8DCEA28EB62EC8AEDA2BD
:10036100EEAAEFA3F08EF16CF23DEFA3EFA3EFA3A2
:10037100EFA3EFA3EFA320080A0C0D0F1101080A48
:0E0381000C0F20204020045363616C650005C2
:10038F005387BF75985053877FE4F5BA43A240FD5A
:10039F007C1824F0FD74FF3CFCE4F5BD8CBFAF0569
:1003AF00EFF5BE75BD035391FE4392014391025386
:0C03BF0092FDC20053B8EF53B7EFD2AC70
:0103CB00220F
:0300230002000ECA
:0D000E00309802C298309904C299C20032A5
:080003002000FDD2008F9922BC
:03045D00AF992232
:03001B000203CC11
:1003CC00C0E0C083C082C0D075D018AB11AA12A9EE
:1003DC0013850F8275830012024125E02441F582BA
:1003EC00E43403F583E493FC740193FDECF58DED9B
:0D03FC00F58BB297D0D0D082D083D0E03204
:03000B000201AB44
:1001AB00C0E0C0F0C083C082C0D075D018C28ED35F
:1001BB00E50E9400E50D94004010758CFE758A8F4A
:1001CB00E50E150E7063150D805FE50FC39510409E
:1001DB000C750F00200108C28EC28C8002050F75B2
:1001EB008CFE758A8FAB14AA15A916850F827583A1
:1001FB0000120241FF7E00AC0BAD0C12026E8E0D95
:10020B008F0EAB11AA12A913850F827583001202F0
:10021B004125E02441F582E43403F583E493FC7437
:10022B000193FDECF58DEDF58BD28ED0D0D082D035
:06023B0083D0F0D0E03298
:1000ED00E4F584F585F591F592F5A4F5A5D201F524
:1000FD0008F509750A3CAC09AD0A7E277F1012027E
:10010D0080EF7805CEC313CE13D8F9FF7C007D3C6C
:10011D0012026E8E0B8F0C12038FD2AFE508146096
:10012D00411460612402707012001E7524FF752544
:10013D0003752683900387E493F5277BFF7A037974
:10014D007F1202DB7BFF7A03798890038EE493FDA7
:10015D0012042ED20120A1FD12040930A1FD0508C3
:10016D0080BA12001E7524FF75250375267790033E
:10017D007EE493F5271202D5D20120A1FD120409C8
:10018D0030A1FD050812001EC20112002620A1FAA1
:0E019D0012040930A1FD0508E4F5080201294D
:0602D5007BFF7A0379783B
:1002DB0075891143A88AE4F50F8527108B118A12B3
:1002EB008913AB24AA25A9268B148A158916758C1C
:1002FB00FE758A8F850F82F583120241FF7E00AC5B
:10030B000BAD0C12026E8E0D8F0EAB11AA12A91330
:10031B00850F8275830012024125E02441F582E4AA
:10032B003403F583E493FC740193FDECF58DEDF54B
:06033B008BD28CD28E2251
:05001E00C28CC28E221D
:040409007F647E008E
:04040D008E218F228B
:10041100E4FBFAAE21AF227C007D6412026EC3EBD5
:0C0421009FEA9E50070BBB00010A80E719
:01042D0022AC
:1000260020A01912040930A0FD7524FF752503755B
:10003600267790037EE493F5271202D520811F12BE
:1000460004093081FD7524FF752503752677900315
:100056007EE493F5277BFF7A0379791202DB20A3EE
:100066001F12040930A3FD7524FF75250375267735
:1000760090037EE493F5277BFF7A03797A1202DBFD
:1000860020821F1204093082FD7524FF7525037531
:10009600267790037EE493F5277BFF7A03797B121C
:1000A60002DB20941F1204093094FD7524FF752588
:1000B6000375267790037EE493F5277BFF7A037911
:1000C6007C1202DB20801F1204093080FD7524FF9C
:1000D60075250375267790037EE493F5277BFF7AD3
:0700E60003797D1202DB2209
:06042E008B218A228923C4
:10043400E4FEEEC39D5015AB21AA22A9238E82753A
:0C0444008300120241FF1200030E80E64C
:010450002289
:03000000020451A6
:0C045100787FE4F6D8FD7581270200EDED
:10024100BB010CE58229F582E5833AF583E0225072
:1002510006E92582F8E622BBFE06E92582F8E222BC
:0D026100E58229F582E5833AF583E49322D6
:10026E00EF8DF0A4A8F0CF8CF0A428CE8DF0A42EA4
:02027E00FE225E
:10028000BC000BBE0029EF8DF084FFADF022E4CC62
:10029000F875F008EF2FFFEE33FEEC33FCEE9DEC2B
:1002A000984005FCEE9DFE0FD5F0E9E4CEFD22ED71
:1002B000F8F5F0EE8420D21CFEADF075F008EF2FBB
:1002C000FFED33FD4007985006D5F0F222C398FDAC
:0502D0000FD5F0EA2249
:00000001FF
