:100227000000F514F5B0F645F6D0F754F7D1F846C7
:10023700F8B5F91EF981F9DEFA36FA8AFAD8FB22FF
:10024700FB68FBAAFBE8FC23FC5AFC8FFCC0FCEF15
:10025700FD1BFD45FD6CFD91FDB4FDD5FDF4FE11C3
:10026700FE2DFE47FE60FE77FE8DFEA2FEB6FEC89F
:10027700FEDAFEEAFEFAFF08FF16FF23FF30FF3B18
:1002870008090B0C0E1001080404024D6574726F07
:10029700544F4E4500090B0D0E1012141510101077
:1002A7001010101010085363616C650005090B0CE2
:1002B700090B0C0E0B100C0E0B0C090B0808080889
:1002C70008080808080808080808080808105468F3
:1002D700726F75676820746865204669726520616A
:0B02E7006E6420466C616D6573001BA7
:0A060A0002281200012701012E0052
:100551005387BF75985053877FE4F5BA43A240FD96
:100561007C1824F0FD74FF3CFCE4F5BD8CBFAF05A5
:10057100EFF5BE75BD035391FE43920143910253C2
:0C05810092FDC20053B8EF53B7EFD2ACAC
:01058D00224B
:0300230002000ECA
:0D000E00309802C298309904C299C20032A5
:080003002000FDD2008F9922BC
:03061E00AF99226F
:03001B00020615C5
:0906150085248D852F8BB29732EC
:03000B000202F2FC
:1002F200C0E0C0F0C083C082C0D075D018D3E52B57
:100302009400E52A94004010758CFE758A8FE52BC7
:10031200152B707B152A8077052CE52CC3952D4073
:100322000B752C00E537B52E03852E36758CFE75C0
:100332008A8FAB33AA34A935852C827583001204C7
:1003420031FF7E00AC25AD2612045E8E2A8F2BABC8
:1003520030AA31A932852C8275830012043125E03E
:100362002427F582E43402F583E493FC740193FDBF
:10037200ECF524EDF52F85248D852F8BED4C700443
:10038200C28E8002D28EE536B52E04C28EC28CD0C9
:0A039200D0D082D083D0F0D0E0324A
:10002600E4F584F585F591F592F5A4F5A5F521F5A8
:100036002275233C1205C3120551D2AFE521146087
:10004600531470030200D21470030200EB24036001
:10005600030201427522007523781205C3750BFF52
:10006600750C02750DC49002D4E493F50E85270F26
:100076007BFF7A0279B41203B512058EC2A4D2852B
:10008600D2A7D28620A1FD1205E530A1FD052112D9
:10009600001E80A81205BD750BFF750C02750DA418
:1000A6009002ACE493F50E85270F7BFF7A02799CCC
:1000B6001203B512058ED2A4C285D2A7D28620A17C
:1000C600FD1205E530A1FD052112001E120148D2E0
:1000D600A4D285C2A7D28620A1F21205E530A1FDE1
:1000E600052112001E1205BD12039CD2A4D285D290
:1000F600A7C28620831B1205E53083FD12001E74FD
:10010600FB2523F52374FF3522F5221205C31203BE
:100116009C20A21A1205E530A2FD12001E740525C8
:1001260023F523E43522F5221205C312039C20A1F0
:10013600C21205E530A1FD052112001EE4F52102DB
:02014600004275
:10039C00750BFF750C02750D8F900291E493F50EA1
:0903AC0085270F7B007A007928F7
:1003B500850F3785273675891143A88AE4F52C857D
:1003C5000E2D8B308A318932850B33850C34850DA2
:1003D50035758CFE758A8FAB33AA34A935852C8289
:1003E500F583120431FF7E00AC25AD2612045E8E26
:1003F5002A8F2BAB30AA31A932852C827583001246
:10040500043125E02427F582E43402F583E493FCE6
:10041500740193FDECF524EDF52F85248D852F8B47
:0C042500D28CED4C7003C28E22D28E22CD
:0605BD0075220075233CCD
:1005C300AC22AD237E277F10120470EF7805CEC3D3
:1005D30013CE13D8F9FF7C007D3C12045E8E258F69
:0205E3002622CE
:05001E00C28CC28E221D
:0405E5007F647E00B1
:0405E9008E088F09E0
:1005ED00E4FBFAAE08AF097C007D6412045EC3EB38
:0C05FD009FEA9E50070BBB00010A80E73C
:0106090022CE
:1001480020A0221205E530A0FD750BFF750C027585
:100158000D8E90028DE493F50E852E0F7BFF7A02AB
:1001680079871203B52081221205E53081FD750BD0
:10017800FF750C02750D8E90028DE493F50E852E99
:100188000F7BFF7A0279881203B520A3221205E5B6
:1001980030A3FD750BFF750C02750D8E90028DE472
:1001A80093F50E852E0F7BFF7A0279891203B5200D
:1001B80082221205E53082FD750BFF750C02750D64
:1001C8008E90028DE493F50E852E0F7BFF7A0279CF
:1001D8008A1203B52094221205E53094FD750BFFB1
:1001E800750C02750D8E90028DE493F50E852E0F19
:1001F8007BFF7A02798B1203B52080221205E53045
:1002080080FD750BFF750C02750D8E90028DE493C1
:0F021800F50E852E0F7BFF7A02798C1203B5222B
:0C058E007BFF7A0279D59002F1E493FD26
:06059A008B088A09890AA2
:1005A000E4FEEEC39D5015AB08AA09A90A8E827518
:0C05B0008300120431FF1200030E80E6ED
:0105BC00221C
:030000000204C532
:0C04C500787FE4F6D8FD75813702050C45
:10043100BB010CE58229F582E5833AF583E0225080
:1004410006E92582F8E622BBFE06E92582F8E222CA
:0D045100E58229F582E5833AF583E49322E4
:10045E00EF8DF0A4A8F0CF8CF0A428CE8DF0A42EB2
:02046E00FE226C
:10047000BC000BBE0029EF8DF084FFADF022E4CC70
:10048000F875F008EF2FFFEE33FEEC33FCEE9DEC39
:10049000984005FCEE9DFE0FD5F0E9E4CEFD22ED7F
:1004A000F8F5F0EE8420D21CFEADF075F008EF2FC9
:1004B000FFED33FD4007985006D5F0F222C398FDBA
:0504C0000FD5F0EA2257
:1004D100020026E493A3F8E493A34003F68001F21B
:1004E10008DFF48029E493A3F85407240CC8C3332C
:1004F100C4540F4420C8834004F456800146F6DFFB
:10050100E4800B010204081020408090060AE47E7A
:10051100019360BCA3FF543F30E509541FFEE493EF
:10052100A360010ECF54C025E060A840B8E493A3B6
:10053100FAE493A3F8E493A3C8C582C8CAC583CAE1
:10054100F0A3C8C582C8CAC583CADFE9DEE780BE99
:0106140000E5
:00000001FF
