:1003AF000000EFA3EFA3EFA3EFA3EFA3EFA3EFA340
:1003BF00E47AE610E77CE8DCEA28EB62EC8AEDA24F
:1003CF00EEAAEFA3F08EF16CF23DEFA3EFA3EFA334
:1003DF00EFA3EFA3EFA308080A0C0D0F1101080AF2
:0703EF000C0F202040200448
:02000800C10035
:03001B000203F6E7
:1003F600C0E0C083C082C0D075D018AB11AA12A9C4
:1004060013850F8275830012019125E024AFF582D2
:10041600E43403F583E493FC740193FDECF58DED70
:0D042600F58BB297D0D0D082D083D0E032D9
:03000B00020225C9
:10022500C0E0C0F0C083C082C0D075D018D3E50E41
:100235009400E50D94004010758CFE758A8FE50ECF
:10024500150E7063150D805FE50FC39510400C7595
:100255000F00200008C28EC28C8002050F758CFE2F
:10026500758A8FAB14AA15A916850F82758300129E
:100275000191FF7E00AC0BAD0C1201BE8E0D8F0EF1
:10028500AB11AA12A913850F82758300120191255E
:10029500E024AFF582E43403F583E493FC74019321
:1002A500FDECF58DEDF58BD0D0D082D083D0F0D09C
:0202B500E03235
:1000E500E4F584F585F591F592F5A4F5A5D200F52D
:1000F50008F509750A3CAC09AD0A7E277F10120187
:10010500D0EF7805CEC313CE13D8F9FF7C007D3C24
:100115001201BE8E0B8F0CE5081460341460562452
:100125000270641200037524FF7525037526F1908E
:1001350003F5E493F5277BFF7A0379ED1203492054
:10014500A1FD7F647E0012043730A1FD050880C73C
:100155001200037524FF7525037526E59003ECE46D
:1001650093F52712034320A1FD7F647E0012043717
:1001750030A1FD050812001E20A1FA7F647E001241
:0C018500043730A1FD0508E4F508808B6C
:060343007BFF7A0379E65E
:1003490075891143A88AE4F50F8527108B118A1244
:100359008913AB24AA25A9268B148A158916758CAD
:10036900FE758A8F850F82F583120191FF7E00AC9D
:100379000BAD0C1201BE8E0D8F0EAB11AA12A91373
:10038900850F8275830012019125E024AFF582E47F
:100399003403F583E493FC740193FDECF58DEDF5DD
:0603A9008BD28CD28E22E3
:05000300C28CC28E2238
:040433007F0A7E00BE
:040437008E218F2261
:10043B00E4FBFAAE21AF227C007D641201BEC3EB5C
:0C044B009FEA9E50070BBB00010A80E7EF
:010457002282
:10001E0020A01912043330A0FD7524FF7525037539
:10002E0026E59003ECE493F52712034320811F127B
:10003E0004333081FD7524FF7525037526E5900385
:10004E00ECE493F5277BFF7A0379E712034920A3AB
:10005E001F12043330A3FD7524FF7525037526E5A5
:10006E009003ECE493F5277BFF7A0379E8120349BA
:10007E0020821F1204333082FD7524FF752503750F
:10008E0026E59003ECE493F5277BFF7A0379E912DA
:10009E00034920941F1204333094FD7524FF7525F7
:1000AE00037526E59003ECE493F5277BFF7A03793D
:1000BE00EA12034920801F1204333080FD7524FF9D
:1000CE007525037526E59003ECE493F5277BFF7AFF
:0700DE000379EB1203492234
:030000000202B742
:0C02B700787FE4F6D8FD7581270202FE76
:10019100BB010CE58229F582E5833AF583E0225023
:1001A10006E92582F8E622BBFE06E92582F8E2226D
:0D01B100E58229F582E5833AF583E4932287
:1001BE00EF8DF0A4A8F0CF8CF0A428CE8DF0A42E55
:0201CE00FE220F
:1001D000BC000BBE0029EF8DF084FFADF022E4CC13
:1001E000F875F008EF2FFFEE33FEEC33FCEE9DECDC
:1001F000984005FCEE9DFE0FD5F0E9E4CEFD22ED22
:10020000F8F5F0EE8420D21CFEADF075F008EF2F6B
:10021000FFED33FD4007985006D5F0F222C398FD5C
:050220000FD5F0EA22F9
:1002C3000200E5E493A3F8E493A34003F68001F26C
:1002D30008DFF48029E493A3F85407240CC8C3333C
:1002E300C4540F4420C8834004F456800146F6DF0B
:1002F300E4800B0102040810204080900008E47E93
:10030300019360BCA3FF543F30E509541FFEE493FF
:10031300A360010ECF54C025E060A840B8E493A3C6
:10032300FAE493A3F8E493A3C8C582C8CAC583CAF1
:10033300F0A3C8C582C8CAC583CADFE9DEE780BEA9
:01000A0000F5
:00000001FF
