:100AD70000001B86188415D8149E125E105D0E94B4
:0B0AE7000DC30103050820208020043F
:0F0AF200010F00010E00020C0000010800C100FE
:03001B00020A21B5
:100A2100C0E0C083C082C0D075D018AB10AA11A994
:100A310012850E8275830012080025E024D7F58205
:100A4100E4340AF583E493FC740193FDECFF8F8D8C
:0E0A5100EDF58BB297D0D0D082D083D0E032BA
:03000B0002089454
:10089400C0E0C0F0C083C082C0D075D018D3E50DCD
:1008A4009400E50C94004010758C02758A71E50D76
:1008B400150D7002150C8060E50EC3950F400C7584
:1008C4000E00200008C28EC28C8002050E758C02B8
:1008D400758A71AB13AA14A915850E82758300124B
:1008E4000800FF7E00AC0AAD0B12082D8E0C8F0D94
:1008F400AB10AA11A912850E827583001208002577
:10090400E024D7F582E4340AF583E493FC7401937C
:10091400FDECFF8F8DEDF58BD0D0D082D083D0F05D
:03092400D0E032EE
:100A5F0075093CE50975F020A4FFAEF07C277DC039
:100A6F00CFCDCFCECCCE12083F8E0A8F0B120A9B62
:100A7F007524FF75250A7526ED900AF1E493F52785
:0C0A8F00D2027BFF7A0A79E91209B32237
:1009B30075891143A88AA2029200E4F50E85270FD8
:1009C3008B108A11891285241385251485261575A4
:1009D3008C02758A71AB13AA14A915850E82F5834F
:1009E300120800FF7E00AC0AAD0B12082D8E0C8F8F
:1009F3000DAB10AA11A912850E827583001208008F
:100A030025E024D7F582E4340AF583E493FC7401EA
:0E0A130093FDECFF8F8DEDF58BD28CD28E22F1
:100A9B005387BF75985053877FE4F5BA43A2407CC8
:100AAB001824F0FD74FF3CFCE4F5BD8CBFAF05EFE3
:100ABB00F5BE75BD035391FE4392014391025392D0
:0B0ACB00FDC20153B8EF53B7EFD2ACEF
:010AD60022FD
:03002300020B02CB
:0D0B0200309802C298309904C299C20132A5
:080B0F002001FDD2018F9922A3
:030B1700AF992271
:03000000020927CB
:0C092700787FE4F6D8FD75812702096E88
:10080000BB010CE58229F582E5833AF583E02250AD
:1008100006E92582F8E622BBFE06E92582F8E222F7
:0D082000E58229F582E5833AF583E4932211
:10082D00EF8DF0A4A8F0CF8CF0A428CE8DF0A42EDF
:02083D00FE2299
:10083F00BC000BBE0029EF8DF084FFADF022E4CC9D
:10084F00F875F008EF2FFFEE33FEEC33FCEE9DEC66
:10085F00984005FCEE9DFE0FD5F0E9E4CEFD22EDAC
:10086F00F8F5F0EE8420D21CFEADF075F008EF2FF6
:10087F00FFED33FD4007985006D5F0F222C398FDE7
:05088F000FD5F0EA2284
:10093300020A5FE493A3F8E493A34003F68001F271
:1009430008DFF48029E493A3F85407240CC8C333C5
:10095300C4540F4420C8834004F456800146F6DF94
:10096300E4800B0102040810204080900AF2E47E28
:10097300019360BCA3FF543F30E509541FFEE49389
:10098300A360010ECF54C025E060A840B8E493A350
:10099300FAE493A3F8E493A3C8C582C8CAC583CA7B
:1009A300F0A3C8C582C8CAC583CADFE9DEE780BE33
:010B010000F3
:00000001FF
