:1003AF000000EFA3EFA3EFA3EFA3EFA3EFA3EFA340
:1003BF00E47AE610E77CE8DCEA28EB62EC8AEDA24F
:1003CF00EEAAEFA3F08EF16CF23DEFA3EFA3EFA334
:1003DF00EFA3EFA3EFA308080A0C0D0F1101010300
:0703EF000508202040200456
:02000800C10035
:03001B000203F6E7
:1003F600C0E0C083C082C0D075D018AB11AA12A9C4
:1004060013850F8275830012022325E024AFF5823F
:10041600E43403F583E493FC740193FDECF58DED70
:0D042600F58BB297D0D0D082D083D0E032D9
:03000B0002018768
:10018700C0E0C0F0C083C082C0D075D018C28EC294
:100197008CD3E50E9400E50D94004010758CFE7528
:1001A7008A8FE50E150E7063150D805FE50FC395F9
:1001B70010400C750F00200008C28EC28C8002050B
:1001C7000F758CFE758A8FAB14AA15A916850F8239
:1001D700758300120223FF7E00AC0BAD0C12025098
:1001E7008E0D8F0EAB11AA12A913850F827583008E
:1001F70012022325E024AFF582E43403F583E49368
:10020700FC740193FDECF58DEDF58B758C01758D07
:0C02170001D0D0D082D083D0F0D0E032F3
:10001E00E4F584F585F591F592F5A4F5A5D200D217
:10002E0086F508F509750A3CAC09AD0A7E277F10E6
:10003E00120262EF7805CEC313CE13D8F9FF7C00FF
:10004E007D3C1202508E0B8F0CE50814603014604C
:10005E004E240270711200037524FF752503752658
:10006E00F19003F5E493F5277BFF7A0379ED120304
:10007E004920A1FD12043330A1FD050880CB1200EA
:10008E00037524FF7525037526E59003ECE493F5BF
:10009E002712034320A1FD12043330A1FD050812DF
:1000AE0000037524FF7525037526E59003ECE49394
:1000BE00F5277BFF7A0379E712034920A1FD12048D
:0C00CE003330A1FD0508E4F508020057DE
:060343007BFF7A0379E65E
:1003490075891143A88AE4F50F8527108B118A1244
:100359008913AB24AA25A9268B148A158916758CAD
:10036900FE758A8F850F82F583120223FF7E00AC0A
:100379000BAD0C1202508E0D8F0EAB11AA12A913E0
:10038900850F8275830012022325E024AFF582E4EC
:100399003403F583E493FC740193FDECF58DEDF5DD
:0603A9008BD28CD28E22E3
:05000300C28CC28E2238
:040433007F0A7E00BE
:040437008E218F2261
:10043B00C286E4FBFAAE21AF227C007D641202502F
:0E044B00C3EB9FEA9E50070BBB00010A80E73F
:010459002280
:1000DA00E5A0640160137524FF7525037526E59074
:1000EA0003ECE493F527120343E58060197524FFB6
:1000FA007525037526E59003ECE493F5277BFF7AD3
:10010A000379E7120349E5A060197524FF752503F1
:10011A007526E59003ECE493F5277BFF7A0379E8EB
:10012A00120349E58060197524FF7525037526E5D4
:10013A009003ECE493F5277BFF7A0379E9120349EC
:10014A00E59060197524FF7525037526E59003EC83
:10015A00E493F5277BFF7A0379EA120349E5806481
:10016A000160197524FF7525037526E59003ECE4F3
:0D017A0093F5277BFF7A0379EB12034922EE
:030000000202B742
:0C02B700787FE4F6D8FD7581270202FE76
:10022300BB010CE58229F582E5833AF583E0225090
:1002330006E92582F8E622BBFE06E92582F8E222DA
:0D024300E58229F582E5833AF583E49322F4
:10025000EF8DF0A4A8F0CF8CF0A428CE8DF0A42EC2
:02026000FE227C
:10026200BC000BBE0029EF8DF084FFADF022E4CC80
:10027200F875F008EF2FFFEE33FEEC33FCEE9DEC49
:10028200984005FCEE9DFE0FD5F0E9E4CEFD22ED8F
:10029200F8F5F0EE8420D21CFEADF075F008EF2FD9
:1002A200FFED33FD4007985006D5F0F222C398FDCA
:0502B2000FD5F0EA2267
:1002C30002001EE493A3F8E493A34003F68001F233
:1002D30008DFF48029E493A3F85407240CC8C3333C
:1002E300C4540F4420C8834004F456800146F6DF0B
:1002F300E4800B0102040810204080900008E47E93
:10030300019360BCA3FF543F30E509541FFEE493FF
:10031300A360010ECF54C025E060A840B8E493A3C6
:10032300FAE493A3F8E493A3C8C582C8CAC583CAF1
:10033300F0A3C8C582C8CAC583CADFE9DEE780BEA9
:01000A0000F5
:00000001FF
