:1003AD000000EFA3EFA3EFA3EFA3EFA3EFA3EFA342
:1003BD00E47AE610E77CE8DCEA28EB62EC8AEDA251
:1003CD00EEAAEFA3F08EF16CF23DEFA3EFA3EFA336
:1003DD00EFA3EFA3EFA308080A0C0D0F1101010302
:0703ED000508202040200458
:02000800C10035
:03001B000203F4E9
:1003F400C0E0C083C082C0D075D018AB11AA12A9C6
:1004040013850F8275830012022125E024ADF58245
:10041400E43403F583E493FC740193FDECF58DED72
:0D042400F58BB297D0D0D082D083D0E032DB
:03000B000201856A
:10018500C0E0C0F0C083C082C0D075D018C28EC296
:100195008CD3E50E9400E50D94004010758CFE752A
:1001A5008A8FE50E150E7063150D805FE50FC395FB
:1001B50010400C750F00200008C28EC28C8002050D
:1001C5000F758CFE758A8FAB14AA15A916850F823B
:1001D500758300120221FF7E00AC0BAD0C12024E9E
:1001E5008E0D8F0EAB11AA12A913850F8275830090
:1001F50012022125E024ADF582E43403F583E4936E
:10020500FC740193FDECF58DEDF58B758C01758D09
:0C02150001D0D0D082D083D0F0D0E032F5
:1000E500E4F584F585F591F592F5A4F5A5D200F52D
:1000F50008F509750A3CAC09AD0A7E277F10120286
:1001050060EF7805CEC313CE13D8F9FF7C007D3C94
:1001150012024E8E0B8F0CE50814603014604E24CD
:100125000270581200037524FF7525037526EF909C
:1001350003F3E493F5277BFF7A0379EB120347205A
:10014500A1FD12043130A1FD050880CB1200037515
:1001550024FF7525037526E39003EAE493F527123A
:10016500034120A1FD12043130A1FD050812001E36
:1001750020A1FA12043130A1FD0508E4F5088097A5
:060341007BFF7A0379E462
:1003470075891143A88AE4F50F8527108B118A1246
:100357008913AB24AA25A9268B148A158916758CAF
:10036700FE758A8F850F82F583120221FF7E00AC0E
:100377000BAD0C12024E8E0D8F0EAB11AA12A913E4
:10038700850F8275830012022125E024ADF582E4F2
:100397003403F583E493FC740193FDECF58DEDF5DF
:0603A7008BD28CD28E22E5
:05000300C28CC28E2238
:040431007F0A7E00C0
:040435008E218F2263
:10043900E4FBFAAE21AF227C007D6412024EC3EBCD
:0C0449009FEA9E50070BBB00010A80E7F1
:010455002284
:10001E0020A01912043130A0FD7524FF752503753B
:10002E0026E39003EAE493F52712034120811F1281
:10003E0004313081FD7524FF7525037526E3900389
:10004E00EAE493F5277BFF7A0379E512034720A3B1
:10005E001F12043130A3FD7524FF7525037526E3A9
:10006E009003EAE493F5277BFF7A0379E6120347C0
:10007E0020821F1204313082FD7524FF7525037511
:10008E0026E39003EAE493F5277BFF7A0379E712E0
:10009E00034720941F1204313094FD7524FF7525FB
:1000AE00037526E39003EAE493F5277BFF7A037941
:1000BE00E812034720801F1204313080FD7524FFA3
:1000CE007525037526E39003EAE493F5277BFF7A03
:0700DE000379E91203472238
:030000000202B544
:0C02B500787FE4F6D8FD7581270202FC7A
:10022100BB010CE58229F582E5833AF583E0225092
:1002310006E92582F8E622BBFE06E92582F8E222DC
:0D024100E58229F582E5833AF583E49322F6
:10024E00EF8DF0A4A8F0CF8CF0A428CE8DF0A42EC4
:02025E00FE227E
:10026000BC000BBE0029EF8DF084FFADF022E4CC82
:10027000F875F008EF2FFFEE33FEEC33FCEE9DEC4B
:10028000984005FCEE9DFE0FD5F0E9E4CEFD22ED91
:10029000F8F5F0EE8420D21CFEADF075F008EF2FDB
:1002A000FFED33FD4007985006D5F0F222C398FDCC
:0502B0000FD5F0EA2269
:1002C1000200E5E493A3F8E493A34003F68001F26E
:1002D10008DFF48029E493A3F85407240CC8C3333E
:1002E100C4540F4420C8834004F456800146F6DF0D
:1002F100E4800B0102040810204080900008E47E95
:10030100019360BCA3FF543F30E509541FFEE49301
:10031100A360010ECF54C025E060A840B8E493A3C8
:10032100FAE493A3F8E493A3C8C582C8CAC583CAF3
:10033100F0A3C8C582C8CAC583CADFE9DEE780BEAB
:01000A0000F5
:00000001FF
