:100200000000F514F5B0F645F6D0F754F7D1F846EE
:10021000F8B5F91EF981F9DEFA36FA8AFAD8FB2226
:10022000FB68FBAAFBE8FC23FC5AFC8FFCC0FCEF3C
:10023000FD1BFD45FD6CFD91FDB4FDD5FDF4FE11EA
:10024000FE2DFE47FE60FE77FE8DFEA2FEB6FEC8C6
:10025000FEDAFEEAFEFAFF08FF16FF23FF30FF3B3F
:1002600008090B0C0E1001084B6579626F6172640E
:1002700000080404024D6574726F544F4E45000926
:10028000090B0D0E10121415101010101010101074
:10029000085363616C650005090B0C090B0C0E0B10
:1002A000100C0E0B0C090B080808080808080808B1
:1002B0000808080808080808105468726F7567680D
:1002C00020746865204669726520616E6420466C02
:1002D000616D6573001B0915211520151E151C1570
:1002E0001A1519151A1506151E151C151A151710AD
:1002F0001510141015100808080808080808080840
:10030000080808080808080808080808080808086D
:1003100008080808080820596F7572205072696E25
:10032000636520436861726D696E67001417000B86
:10033000171E1B0B17120006000000060010000419
:10034000101C1B04191919060000000600080408F7
:10035000040804080408040804080408040804083D
:100360000408040804080408040804080420536866
:1003700065204C6F766573204D6520284E6F74297B
:02038000001269
:1007700002281200142D436F6E6E6F722C204A6196
:100780006D65732C204A616B6500012701014300F0
:1006C0005387BF75985053877FE4F5BA43A240FD26
:1006D0007C1824F0FD74FF3CFCE4F5BD8CBFAF0535
:1006E000EFF5BE75BD035391FE4392014391025352
:0C06F00092FDC20053B8EF53B7EFD2AC3C
:0106FC0022DB
:0300230002000ECA
:0D000E00309802C298309904C299C20032A5
:0807B4002000FDD2008F992204
:03001E00AF992275
:03001B000207AB2E
:0907AB0085248D85448BB2973240
:03000B000204618B
:10046100C0E0C0F0C083C082C0D075D018D3E52BE6
:100471009400E52A94004010758CFE758A8FE52B57
:10048100152B707B152A80770541E541C3954240C4
:100491000B754100E54CB5430385434B758CFE75E7
:1004A1008A8FAB48AA49A94A854182758300120502
:1004B100A0FF7E00AC25AD261205CD8E2A8F2BAB79
:1004C10045AA46A9478541827583001205A025E00A
:1004D1002400F582E43402F583E493FC740193FD76
:1004E100ECF524EDF54485248D85448BED4C7004A9
:1004F100C28E8002D28EE54BB54304C28EC28CD02F
:0A050100D0D082D083D0F0D0E032D9
:10002600E4F584F585F591759204F5A4F5A5F52119
:10003600F52275233C1207031206C0D2AFD2A8439D
:100046008801E5211460641470030200F41470033F
:1000560002011C1470030201B4240460030201FAB5
:100066007522007523781207037552FF75530275C2
:1000760054A89002B8E493F5558527567BFF7A027B
:1000860079981205247BFF7A0279B99002D5120776
:1000960025C2A4D285D2A7D286D29620A1FD120768
:1000A6004B30A1FD052112000680971206FD755200
:1000B600FF7553027554F6900316E493F55585279C
:1000C600567BFF7A0279D61205247BFF7A037917CD
:1000D60090032C120725D2A4C285D2A7D286D29627
:1000E60020A1FD12074B30A1FD05211200067BFF62
:1000F6007A027968900271E493FD1207281203824E
:10010600D2A4D285C2A7D28620A1F212074B30A173
:10011600FD05211200061206FD12050B7BFF7A0271
:10012600797590027FE493FD120728D2A4D285D276
:10013600A7C286D29620831B12074B3083FD12007E
:100146000674FB2523F52374FF3522F522120703D7
:1001560012050B20A21A12074B30A2FD12000674DC
:10016600052523F523E43522F52212070312050B94
:1001760020941512074B3083FD120006E528D39410
:10018600014002152812050B20801512074B3083FB
:10019600FD120006E528C394235002052812050B1C
:1001A60020A19212074B30A1FD052112000612066E
:1001B600FD7552FF75530375544D90036DE493F529
:1001C600558527567BFF7A03792D1205247BFF7A06
:1001D60003796E900381E493FD120728D2A4D28599
:1001E600D2A7D286C29620A1FD12074B30A1FD05EB
:0A01F60021120006E4F52102004882
:10050B007552FF755302755472900274E493F5554E
:09051B008527567B007A0079283F
:1005240085564C85274B75891143A88AE4F5418586
:1005340055428B458A468947855248855349855497
:100544004A758CFE758A8FAB48AA49A94A854182AF
:10055400F5831205A0FF7E00AC25AD261205CD8ED5
:100564002A8F2BAB45AA46A9478541827583001281
:1005740005A025E02400F582E43402F583E493FC2D
:10058400740193FDECF524EDF54485248D85448BAD
:0C059400D28CED4C7003C28E22D28E225D
:0606FD0075220075233C8C
:10070300AC22AD237E277F101205DFEF7805CEC321
:1007130013CE13D8F9FF7C007D3C1205CD8E258FB7
:0207230026228C
:05000600C28CC28E2235
:04074B007F647E0049
:04074F008E4F8F50EA
:10075300E4FBFAAE4FAF507C007D641205CDC3EBD2
:0C0763009FEA9E50070BBB00010A80E7D4
:01076F002267
:1003820020A02212074B30A0FD7552FF7553027553
:100392005467900266E493F5558543567BFF7A02D3
:1003A200796012052420812212074B3081FD75529B
:1003B200FF755302755467900266E493F5558543C1
:1003C200567BFF7A02796112052420A32212074B81
:1003D20030A3FD7552FF755302755467900266E4AF
:1003E20093F5558543567BFF7A02796212052420E4
:1003F200822212074B3082FD7552FF7553027554EB
:1004020067900266E493F5558543567BFF7A02793D
:100412006312052420942212074B3094FD7552FF7B
:10042200755302755467900266E493F555854356F9
:100432007BFF7A02796412052420802212074B3056
:1004420080FD7552FF755302755467900266E493FE
:0F045200F5558543567BFF7A0279651205242202
:03072500E493FD5D
:060728008B4F8A5089513D
:10072E00E4FEEEC39D5015AB4FAA50A9518E8275B3
:0C073E0083001205A0FF1207B40E80E635
:01074A00228C
:0300030002079160
:10079100C0E0C0F0C0D075D008C28412074B12006F
:0A07A10006D284D0D0D0F0D0E032B0
:03000000020634C1
:0C063400787FE4F6D8FD75815602067B45
:1005A000BB010CE58229F582E5833AF583E0225010
:1005B00006E92582F8E622BBFE06E92582F8E2225A
:0D05C000E58229F582E5833AF583E4932274
:1005CD00EF8DF0A4A8F0CF8CF0A428CE8DF0A42E42
:0205DD00FE22FC
:1005DF00BC000BBE0029EF8DF084FFADF022E4CC00
:1005EF00F875F008EF2FFFEE33FEEC33FCEE9DECC9
:1005FF00984005FCEE9DFE0FD5F0E9E4CEFD22ED0F
:10060F00F8F5F0EE8420D21CFEADF075F008EF2F58
:10061F00FFED33FD4007985006D5F0F222C398FD49
:05062F000FD5F0EA22E6
:10064000020026E493A3F8E493A34003F68001F2AA
:1006500008DFF48029E493A3F85407240CC8C333BB
:10066000C4540F4420C8834004F456800146F6DF8A
:10067000E4800B0102040810204080900770E47EA3
:10068000019360BCA3FF543F30E509541FFEE4937F
:10069000A360010ECF54C025E060A840B8E493A346
:1006A000FAE493A3F8E493A3C8C582C8CAC583CA71
:1006B000F0A3C8C582C8CAC583CADFE9DEE780BE29
:010790000068
:00000001FF
