:1002C90000001B86188415D8149E125E105D0E94CA
:0B02D9000DC301030508202080200455
:0F02E400010F00010E00020C0000010800C10014
:03001B0002028856
:10028800C0E0C083C082C0D075D018AB10AA11A935
:1002980012850E827583001200B425E024C9F58208
:1002A800E43402F583E493FC740193FDECFF339589
:1002B800E08F8DEDF58BB297D0D0D082D083D0E08F
:0102C8003203
:03000B0002001ED2
:10001E00C0E0C0F0C083C082C0D075D018D3E50D4B
:10002E009400E50C94004010758C02758A71E50DF4
:10003E00150D7067150C8063E50EC3950F400C759A
:10004E000E00200008C28EC28C8002050E758C0236
:10005E00758A71AB13AA14A915850E8275830012C9
:10006E0000B4FF7E00AC0AAD0B1200E18E0C8F0DBA
:10007E00AB10AA11A912850E827583001200B42549
:10008E00E024C9F582E43402F583E493FC74019311
:10009E00FDECFF3395E08F8DEDF58BD0D0D082D077
:0600AE0083D0F0D0E03227
:10024200E4F584F585F591F592C28675093CE509D8
:1002520075F020A4FFAEF07C277DC0CFCDCFCECCF1
:10026200CE1200F38E0A8F0B7524FF7525027526B8
:10027200DF9002E3E493F527D2017BFF7A0279DB78
:060282001201D480FE22EF
:1001D40075891143A88AA2019200E4F50E85270FC0
:1001E4008B108A118912AB24AA25A9268B138A1491
:1001F4008915758C02758A71850E82F5831200B497
:10020400FF7E00AC0AAD0B1200E18E0C8F0DAB101B
:10021400AA11A912850E827583001200B425E02468
:10022400C9F582E43402F583E493FC740193FDEC94
:0E023400FF3395E08F8DEDF58BD28CD28E22AC
:03000000020148B2
:0C014800787FE4F6D8FD75812702018F56
:1000B400BB010CE58229F582E5833AF583E0225001
:1000C40006E92582F8E622BBFE06E92582F8E2224B
:0D00D400E58229F582E5833AF583E4932265
:1000E100EF8DF0A4A8F0CF8CF0A428CE8DF0A42E33
:0200F100FE22ED
:1000F300BC000BBE0029EF8DF084FFADF022E4CCF1
:10010300F875F008EF2FFFEE33FEEC33FCEE9DECB9
:10011300984005FCEE9DFE0FD5F0E9E4CEFD22EDFF
:10012300F8F5F0EE8420D21CFEADF075F008EF2F49
:10013300FFED33FD4007985006D5F0F222C398FD3A
:050143000FD5F0EA22D7
:10015400020242E493A3F8E493A34003F68001F27D
:1001640008DFF48029E493A3F85407240CC8C333AC
:10017400C4540F4420C8834004F456800146F6DF7B
:10018400E4800B01020408102040809002E4E47E25
:10019400019360BCA3FF543F30E509541FFEE49370
:1001A400A360010ECF54C025E060A840B8E493A337
:1001B400FAE493A3F8E493A3C8C582C8CAC583CA62
:1001C400F0A3C8C582C8CAC583CADFE9DEE780BE1A
:0102F300000A
:00000001FF
