:1003B6000000EFA3EFA3EFA3EFA3EFA3EFA3EFA339
:1003C600E47AE610E77CE8DCEA28EB62EC8AEDA248
:1003D600EEAAEFA3F08EF16CF23DEFA3EFA3EFA32D
:1003E600EFA3EFA3EFA320080A0C0D0F1101080AD3
:0703F6000C0F202040200441
:02000800C10035
:03001B000203FDE0
:1003FD00C0E0C083C082C0D075D018AB11AA12A9BD
:10040D0013850F8275830012022A25E024B6F5822A
:10041D00E43403F583E493FC740193FDECF58DED69
:0D042D00F58BB297D0D0D082D083D0E032D2
:03000B000201945B
:10019400C0E0C0F0C083C082C0D075D018C28ED376
:1001A400E50E9400E50D94004010758CFE758A8F61
:1001B400E50E150E7063150D805FE50FC3951040B5
:1001C4000C750F00200008C28EC28C8002050F75CA
:1001D4008CFE758A8FAB14AA15A916850F827583B8
:1001E4000012022AFF7E00AC0BAD0C1202578E0DDA
:1001F4008F0EAB11AA12A913850F82758300120208
:100204002A25E024B6F582E43403F583E493FC74F0
:100214000193FDECF58DEDF58BD28ED0D0D082D04C
:0602240083D0F0D0E032AF
:1000E500E4F584F585F591F592F5A4F5A5D200F52D
:1000F50008F509750A3CAC09AD0A7E277F10120286
:1001050069EF7805CEC313CE13D8F9FF7C007D3C8B
:100115001202578E0B8F0CE50814603414605624B8
:100125000270671200037524FF7525037526F89084
:1001350003FCE493F5277BFF7A0379F4120350203F
:10014500A1FD7F647E0012043E30A1FD050880C735
:100155001200037524FF7525037526EC9003F3E45F
:1001650093F52712034A20A1FD7F647E0012043E09
:1001750030A1FD050812000312001E20A1FA7F64BC
:0F0185007E0012043E30A1FD0508E4F5088088D5
:06034A007BFF7A0379ED50
:1003500075891143A88AE4F50F8527108B118A123D
:100360008913AB24AA25A9268B148A158916758CA6
:10037000FE758A8F850F82F58312022AFF7E00ACFC
:100380000BAD0C1202578E0D8F0EAB11AA12A913D2
:10039000850F8275830012022A25E024B6F582E4D7
:1003A0003403F583E493FC740193FDECF58DEDF5D6
:0603B0008BD28CD28E22DC
:05000300C28CC28E2238
:04043A007F0A7E00B7
:04043E008E218F225A
:10044200E4FBFAAE21AF227C007D64120257C3EBBB
:0C0452009FEA9E50070BBB00010A80E7E8
:01045E00227B
:10001E0020A01912043A30A0FD7524FF7525037532
:10002E0026EC9003F3E493F52712034A20811F1266
:10003E00043A3081FD7524FF7525037526EC900377
:10004E00F3E493F5277BFF7A0379EE12035020A396
:10005E001F12043A30A3FD7524FF7525037526EC97
:10006E009003F3E493F5277BFF7A0379EF120350A5
:10007E0020821F12043A3082FD7524FF7525037508
:10008E0026EC9003F3E493F5277BFF7A0379F012C5
:10009E00035020941F12043A3094FD7524FF7525E9
:1000AE00037526EC9003F3E493F5277BFF7A03792F
:1000BE00F112035020801F12043A3080FD7524FF88
:1000CE007525037526EC9003F3E493F5277BFF7AF1
:0700DE000379F21203502226
:030000000202BE3B
:0C02BE00787FE4F6D8FD75812702030567
:10022A00BB010CE58229F582E5833AF583E0225089
:10023A0006E92582F8E622BBFE06E92582F8E222D3
:0D024A00E58229F582E5833AF583E49322ED
:10025700EF8DF0A4A8F0CF8CF0A428CE8DF0A42EBB
:02026700FE2275
:10026900BC000BBE0029EF8DF084FFADF022E4CC79
:10027900F875F008EF2FFFEE33FEEC33FCEE9DEC42
:10028900984005FCEE9DFE0FD5F0E9E4CEFD22ED88
:10029900F8F5F0EE8420D21CFEADF075F008EF2FD2
:1002A900FFED33FD4007985006D5F0F222C398FDC3
:0502B9000FD5F0EA2260
:1002CA000200E5E493A3F8E493A34003F68001F265
:1002DA0008DFF48029E493A3F85407240CC8C33335
:1002EA00C4540F4420C8834004F456800146F6DF04
:1002FA00E4800B0102040810204080900008E47E8C
:10030A00019360BCA3FF543F30E509541FFEE493F8
:10031A00A360010ECF54C025E060A840B8E493A3BF
:10032A00FAE493A3F8E493A3C8C582C8CAC583CAEA
:10033A00F0A3C8C582C8CAC583CADFE9DEE780BEA2
:01000A0000F5
:00000001FF
