:100AAE0000001B86188415D8149E125E105D0E94DD
:0B0ABE000DC301030508202080200468
:0F0AC900C100011000010F00020D000001080024
:03001B00020A7165
:100A7100C0E0C083C082C0D075D018AB11AA12A942
:100A810013850F8275830012089A25E024AEF58242
:100A9100E4340AF583E493FC740193FDECF58DEDE8
:0D0AA100F58BB297D0D0D082D083D0E03258
:03000B00020800E8
:10080000C0E0C0F0C083C082C0D075D018C28EC214
:100810008CD3E50E9400E50D94004010758CFE75A8
:100820008A8FE50E150E7002150D805FE50FC395DA
:1008300010400C750F00200008C28EC28C8002058B
:100840000F758CFE758A8FAB14AA15A916850F82B9
:1008500075830012089AFF7E00AC0BAD0C1208C71E
:100860008E0D8F0EAB11AA12A913850F827583000E
:1008700012089A25E024AEF582E4340AF583E49365
:10088000FC740193FDECF58DEDF58BD28CD28ED0FE
:0A089000D0D082D083D0F0D0E03247
:100A2300E4F584F585F591F592D200C286F5097552
:100A33000A3CAC09AD0A7E277F101208D9EF78056E
:100A4300CEC313CE13D8F9FF7C007D3C1208C78EAA
:100A53000B8F0C7524FF75250A7526C4900AC8E40C
:0E0A630093F5277BFF7A0A79C01209BA80FE4C
:1009BA0075891143A88AE4F50F8527108B118A12CD
:1009CA008913852414852515852616758CFE758A46
:1009DA008FAB14AA15A916850F82F58312089AFF00
:1009EA007E00AC0BAD0C1208C78E0D8F0EAB11AA90
:1009FA0012A913850F8275830012089A25E024AE86
:100A0A00F582E4340AF583E493FC740193FDECF572
:090A1A008DEDF58BD28CD28E22F9
:0300000002092EC4
:0C092E00787FE4F6D8FD7581270209757A
:10089A00BB010CE58229F582E5833AF583E0225013
:1008AA0006E92582F8E622BBFE06E92582F8E2225D
:0D08BA00E58229F582E5833AF583E4932277
:1008C700EF8DF0A4A8F0CF8CF0A428CE8DF0A42E45
:0208D700FE22FF
:1008D900BC000BBE0029EF8DF084FFADF022E4CC03
:1008E900F875F008EF2FFFEE33FEEC33FCEE9DECCC
:1008F900984005FCEE9DFE0FD5F0E9E4CEFD22ED12
:10090900F8F5F0EE8420D21CFEADF075F008EF2F5B
:10091900FFED33FD4007985006D5F0F222C398FD4C
:050929000FD5F0EA22E9
:10093A00020A23E493A3F8E493A34003F68001F2A6
:10094A0008DFF48029E493A3F85407240CC8C333BE
:10095A00C4540F4420C8834004F456800146F6DF8D
:10096A00E4800B0102040810204080900AC9E47E4A
:10097A00019360BCA3FF543F30E509541FFEE49382
:10098A00A360010ECF54C025E060A840B8E493A349
:10099A00FAE493A3F8E493A3C8C582C8CAC583CA74
:1009AA00F0A3C8C582C8CAC583CADFE9DEE780BE2C
:010AD800001D
:00000001FF
