:100179000000F514F5B0F645F6D0F754F7D1F84676
:10018900F8B5F91EF981F9DEFA36FA8AFAD8FB22AE
:10019900FB68FBAAFBE8FC23FC5AFC8FFCC0FCEFC4
:1001A900FD1BFD45FD6CFD91FDB4FDD5FDF4FE1172
:1001B900FE2DFE47FE60FE77FE8DFEA2FEB6FEC84E
:1001C900FEDAFEEAFEFAFF08FF16FF23FF30FF3BC7
:1001D90008090B0C0E1001084B6579626F61726496
:1001E90000080404024D6574726F544F4E450009AE
:1001F900090B0D0E101214151010101010101010FC
:10020900085363616C650005090B0C090B0C0E0B97
:10021900100C0E0B0C090B08080808080808080838
:100229000808080808080808105468726F75676894
:1002390020746865204669726520616E6420466C89
:10024900616D6573001B0102030405060708090AAD
:100259000B0C0D0E0F101112131415161718191A6D
:100269001B1C1D1E1F202122232425262728292A5D
:100279002B2C2D2E2F040404040404040404040468
:100289000404040404040404040404040404040425
:100299000404040404040404040404040404040415
:1002A900040404042F4576657279204E6F74650045
:0102B9000A3A
:1006A80002281200142D436F6E6E6F722C204A615F
:1006B8006D65732C204A616B6500012701014300B9
:1005F8005387BF75985053877FE4F5BA43A240FDEF
:100608007C1824F0FD74FF3CFCE4F5BD8CBFAF05FD
:10061800EFF5BE75BD035391FE439201439102531A
:0C06280092FDC20053B8EF53B7EFD2AC04
:0106340022A3
:0300230002000ECA
:0D000E00309802C298309904C299C20032A5
:0806D2002000FDD2008F9922E7
:03001E00AF992275
:03001B000206C911
:0906C90085248D85448BB2973223
:03000B0002039954
:10039900C0E0C0F0C083C082C0D075D018D3E52BAF
:1003A9009400E52A94004010758CFE758A8FE52B20
:1003B900152B707B152A80770541E541C39542408D
:1003C9000B754100E54CB5430385434B758CFE75B0
:1003D9008A8FAB48AA49A94A8541827583001204CC
:1003E900D8FF7E00AC25AD261205058E2A8F2BABD2
:1003F90045AA46A9478541827583001204D825E09C
:100409002479F582E43401F583E493FC740193FDC6
:10041900ECF524EDF54485248D85448BED4C700471
:10042900C28E8002D28EE54BB54304C28EC28CD0F7
:0A043900D0D082D083D0F0D0E032A2
:10002600E4F584F585F591F592F5A4F5A5F521F5A8
:100036002275233C12063B1205F8D2AFD2A843889C
:1000460001E52114605C1470030200E514700302DC
:10005600010D2403600302017375220075237812D3
:10006600063B750BFF750C02750D21900231E4936A
:10007600F50E85270F7BFF7A02791112045C7BFF50
:100086007A02793290024E12065DC2A4D285D2A7B8
:10009600D28620A1FD12068330A1FD05211200069D
:1000A600809F120635750BFF750C02750D7E750E59
:1000B600AD85270F7BFF7A02794F12045C7BFF7AAE
:1000C6000279AE9002B912065DD2A4C285D2A7D239
:1000D6008620A1FD12068330A1FD05211200067BB4
:1000E600FF7A0179E19001EAE493FD1206601202BB
:1000F600BAD2A4D285C2A7D28620A1F21206833034
:10010600A1FD05211200061206351204437BFF7A73
:100116000179EE9001F8E493FD120660D2A4D2852F
:10012600D2A7C28620831B1206833083FD120006E7
:1001360074FB2523F52374FF3522F52212063B12A4
:10014600044320A21A12068330A2FD12000674058B
:100156002523F523E43522F52212063B120443201B
:10016600A1C212068330A1FD0521120006E4F52185
:030176000200473D
:10044300750BFF750C01750DEB9001EDE493F50E43
:0904530085270F7B007A0079284F
:10045C00850F4C85274B75891143A88AE4F5418596
:10046C000E428B458A468947850B48850C49850D7C
:10047C004A758CFE758A8FAB48AA49A94A85418278
:10048C00F5831204D8FF7E00AC25AD261205058E2F
:10049C002A8F2BAB45AA46A947854182758300124A
:1004AC0004D825E02479F582E43401F583E493FC47
:1004BC00740193FDECF524EDF54485248D85448B76
:0C04CC00D28CED4C7003C28E22D28E2226
:0606350075220075233C54
:10063B00AC22AD237E277F10120517EF7805CEC3B2
:10064B0013CE13D8F9FF7C007D3C1205058E258F48
:02065B00262255
:05000600C28CC28E2235
:040683007F647E0012
:040687008E088F0941
:10068B00E4FBFAAE08AF097C007D64120505C3EBF1
:0C069B009FEA9E50070BBB00010A80E79D
:0106A7002230
:1002BA0020A02212068330A0FD750BFF750C017574
:1002CA000DE09001DFE493F50E85430F7BFF7A0181
:1002DA0079D912045C2081221206833081FD750BC4
:1002EA00FF750C01750DE09001DFE493F50E85436F
:1002FA000F7BFF7A0179DA12045C20A322120683AB
:10030A0030A3FD750BFF750C01750DE09001DFE45C
:10031A0093F50E85430F7BFF7A0179DB12045C208B
:10032A0082221206833082FD750BFF750C01750D52
:10033A00E09001DFE493F50E85430F7BFF7A0179A4
:10034A00DC12045C2094221206833094FD750BFFA4
:10035A00750C01750DE09001DFE493F50E85430FEE
:10036A007BFF7A0179DD12045C2080221206833039
:10037A0080FD750BFF750C01750DE09001DFE493AC
:0F038A00F50E85430F7BFF7A0179DE12045C22AA
:03065D00E493FD26
:060660008B088A09890ADB
:10066600E4FEEEC39D5015AB08AA09A90A8E827551
:0C06760083001204D8FF1206D20E80E6AA
:010682002255
:03000300020021D7
:0100210032AC
:0300000002056C8A
:0C056C00787FE4F6D8FD75814C0205B3E1
:1004D800BB010CE58229F582E5833AF583E02250D9
:1004E80006E92582F8E622BBFE06E92582F8E22223
:0D04F800E58229F582E5833AF583E493223D
:10050500EF8DF0A4A8F0CF8CF0A428CE8DF0A42E0A
:02051500FE22C4
:10051700BC000BBE0029EF8DF084FFADF022E4CCC8
:10052700F875F008EF2FFFEE33FEEC33FCEE9DEC91
:10053700984005FCEE9DFE0FD5F0E9E4CEFD22EDD7
:10054700F8F5F0EE8420D21CFEADF075F008EF2F21
:10055700FFED33FD4007985006D5F0F222C398FD12
:050567000FD5F0EA22AF
:10057800020026E493A3F8E493A34003F68001F273
:1005880008DFF48029E493A3F85407240CC8C33384
:10059800C4540F4420C8834004F456800146F6DF53
:1005A800E4800B01020408102040809006A8E47E35
:1005B800019360BCA3FF543F30E509541FFEE49348
:1005C800A360010ECF54C025E060A840B8E493A30F
:1005D800FAE493A3F8E493A3C8C582C8CAC583CA3A
:1005E800F0A3C8C582C8CAC583CADFE9DEE780BEF2
:0106C8000031
:00000001FF
