:100B610000001B86188415D8149E125E105D0E9429
:100B71000DC3080102030405060101030508202035
:030B8100802004CD
:050B8400C100010800A2
:03001B00020B24B1
:100B2400C0E0C083C082C0D075D018AB11AA12A98E
:100B340013850F8275830012094D25E02461F58227
:100B4400E4340BF583E493FC740193FDECF58DED33
:0D0B5400F58BB297D0D0D082D083D0E032A4
:03000B000208B335
:1008B300C0E0C0F0C083C082C0D075D018C28EC261
:1008C3008CD3E50E9400E50D94004010758CFE75F5
:1008D3008A8FE50E150E7002150D805FE50FC39527
:1008E30010400C750F00200008C28EC28C800205D8
:1008F3000F758CFE758A8FAB14AA15A916850F8206
:1009030075830012094DFF7E00AC0BAD0C12097A02
:100913008E0D8F0EAB11AA12A913850F827583005A
:1009230012094D25E02461F582E4340BF583E49349
:10093300FC740193FDECF58DEDF58BD28CD28ED04A
:0A094300D0D082D083D0F0D0E03293
:10080000E5A0640160197524FF75250B75267390AA
:100810000B7AE493F5277BFF7A0B7974120A6DE566
:100820008060197524FF75250B752673900B7AE48B
:1008300093F5277BFF7A0B7975120A6DE5A0601995
:100840007524FF75250B752673900B7AE493F527B5
:100850007BFF7A0B7976120A6DE58060197524FFAB
:1008600075250B752673900B7AE493F5277BFF7A39
:100870000B7977120A6DE59060197524FF75250BC9
:10088000752673900B7AE493F5277BFF7A0B7978C2
:10089000120A6DE580640160197524FF75250B75DA
:1008A0002673900B7AE493F5277BFF7A0B79791204
:0308B0000A6D22AC
:100AD600E4F584F585F591F592D200C286F509759F
:100AE6000A3CAC09AD0A7E277F1012098CEF780507
:100AF600CEC313CE13D8F9FF7C007D3C12097A8E43
:100B06000B8F0C7524FF75250B75267F900B83E4E0
:0E0B160093F5277BFF7A0B797B120A6D80FE28
:100A6D0075891143A88AE4F50F8527108B118A1219
:100A7D008913852414852515852616758CFE758A92
:100A8D008FAB14AA15A916850F82F58312094DFF98
:100A9D007E00AC0BAD0C12097A8E0D8F0EAB11AA28
:100AAD0012A913850F8275830012094D25E024616B
:100ABD00F582E4340BF583E493FC740193FDECF5BE
:090ACD008DEDF58BD28CD28E2246
:050B8A00C28CC28E22A6
:030000000209E111
:0C09E100787FE4F6D8FD758127020A2813
:10094D00BB010CE58229F582E5833AF583E022505F
:10095D0006E92582F8E622BBFE06E92582F8E222A9
:0D096D00E58229F582E5833AF583E49322C3
:10097A00EF8DF0A4A8F0CF8CF0A428CE8DF0A42E91
:02098A00FE224B
:10098C00BC000BBE0029EF8DF084FFADF022E4CC4F
:10099C00F875F008EF2FFFEE33FEEC33FCEE9DEC18
:1009AC00984005FCEE9DFE0FD5F0E9E4CEFD22ED5E
:1009BC00F8F5F0EE8420D21CFEADF075F008EF2FA8
:1009CC00FFED33FD4007985006D5F0F222C398FD99
:0509DC000FD5F0EA2236
:1009ED00020AD6E493A3F8E493A34003F68001F240
:1009FD0008DFF48029E493A3F85407240CC8C3330B
:100A0D00C4540F4420C8834004F456800146F6DFD9
:100A1D00E4800B0102040810204080900B84E47EDA
:100A2D00019360BCA3FF543F30E509541FFEE493CE
:100A3D00A360010ECF54C025E060A840B8E493A395
:100A4D00FAE493A3F8E493A3C8C582C8CAC583CAC0
:100A5D00F0A3C8C582C8CAC583CADFE9DEE780BE78
:010B8900006B
:00000001FF
