:1001CF000000F514F5B0F645F6D0F754F7D1F84620
:1001DF00F8B5F91EF981F9DEFA36FA8AFAD8FB2258
:1001EF00FB68FBAAFBE8FC23FC5AFC8FFCC0FCEF6E
:1001FF00FD1BFD45FD6CFD91FDB4FDD5FDF4FE111C
:10020F00FE2DFE47FE60FE77FE8DFEA2FEB6FEC8F7
:10021F00FEDAFEEAFEFAFF08FF16FF23FF30FF3B70
:10022F0008090B0C0E1001084B6579626F6172643F
:10023F0000080404024D6574726F544F4E45000957
:10024F00090B0D0E101214151010101010101010A5
:10025F00085363616C650005090B0C090B0C0E0B41
:10026F00100C0E0B0C090B080808080808080808E2
:10027F000808080808080808105468726F7567683E
:10028F0020746865204669726520616E6420466C33
:10029F00616D6573001B151C15141C1412191810B1
:1002AF00080810080820101009596F757220507235
:1002BF00696E636520436861726D696E670014171C
:1002CF00000B171E1B0B1712000600000006001074
:1002DF000004101C1B041919190600000006000861
:1002EF00040804080408040804080408040804089F
:1002FF000408040804080408040804080408042077
:10030F00536865204C6F766573204D6520284E6FBE
:04031F00742900122B
:1007110002281200142D436F6E6E6F722C204A61F5
:100721006D65732C204A616B65000127010143004F
:100661005387BF75985053877FE4F5BA43A240FD85
:100671007C1824F0FD74FF3CFCE4F5BD8CBFAF0594
:10068100EFF5BE75BD035391FE43920143910253B1
:0C06910092FDC20053B8EF53B7EFD2AC9B
:01069D00223A
:0300230002000ECA
:0D000E00309802C298309904C299C20032A5
:08073B002000FDD2008F99227D
:03001E00AF992275
:03001B00020732A7
:0907320085248D85448BB29732B9
:03000B00020402EA
:10040200C0E0C0F0C083C082C0D075D018D3E52B45
:100412009400E52A94004010758CFE758A8FE52BB6
:10042200152B707B152A80770541E541C395424023
:100432000B754100E54CB5430385434B758CFE7546
:100442008A8FAB48AA49A94A854182758300120561
:1004520041FF7E00AC25AD2612056E8E2A8F2BAB96
:1004620045AA46A94785418275830012054125E0C8
:1004720024CFF582E43401F583E493FC740193FD07
:10048200ECF524EDF54485248D85448BED4C700408
:10049200C28E8002D28EE54BB54304C28EC28CD08E
:0A04A200D0D082D083D0F0D0E03239
:10002600E4F584F585F591F592F5A4F5A5F521F5A8
:100036002275233C1206A4120661D2AFD2A84388C9
:1000460001E52114605E1470030200ED14700302D2
:100056000115147003020183240460030201C9120E
:10006600069E750BFF750C02750D77900287E4935B
:10007600F50E85270F7BFF7A0279671204C57BFF91
:100086007A0279889002A41206C6C2A4D285D2A7A3
:10009600D286D29620A1FD1206EC30A1FD052112D2
:1000A6000006809D12069E750BFF750C02750DAE3F
:1000B6009002B7E493F50E85270F7BFF7A0279A5A8
:1000C6001204C57BFF7A0279B89002CD1206C6D219
:1000D600A4C285D2A7D286D29620A1FD1206EC3004
:1000E600A1FD05211200067BFF7A027937900240B6
:1000F600E493FD1206C9120323D2A4D285C2A7D265
:100106008620A1F21206EC30A1FD0521120006752B
:10011600220075233C1206A41204AC7BFF7A0279F6
:100126004490024EE493FD1206C9D2A4D285D2A70A
:10013600C286D29620831B1206EC3083FD1200067F
:1001460074FB2523F52374FF3522F5221206A4122B
:1001560004AC20A21A1206EC30A2FD1200067405A9
:100166002523F523E43522F5221206A41204AC2039
:10017600A1C21206EC30A1FD052112000612069E50
:10018600750BFF750C02750DEE90030EE493F50EDC
:1001960085270F7BFF7A0279CE1204C57BFF7A038F
:1001A600790F900322E493FD1206C9D2A4D285D218
:1001B600A7D286C29620A1FD1206EC30A1FD05212C
:0901C600120006E4F521020047D5
:1004AC00750BFF750C02750D41900243E493F50E2C
:0904BC0085270F7B007A007928E6
:1004C500850F4C85274B75891143A88AE4F541852D
:1004D5000E428B458A468947850B48850C49850D13
:1004E5004A758CFE758A8FAB48AA49A94A8541820F
:1004F500F583120541FF7E00AC25AD2612056E8EF3
:100505002A8F2BAB45AA46A94785418275830012E0
:10051500054125E024CFF582E43401F583E493FC1D
:10052500740193FDECF524EDF54485248D85448B0C
:0C053500D28CED4C7003C28E22D28E22BC
:06069E00752200752378AF
:1006A400AC22AD237E277F10120580EF7805CEC3E0
:1006B40013CE13D8F9FF7C007D3C12056E8E258F76
:0206C4002622EC
:05000600C28CC28E2235
:0406EC007F647E00A9
:0406F0008E088F09D8
:1006F400E4FBFAAE08AF097C007D6412056EC3EB1F
:0C0704009FEA9E50070BBB00010A80E733
:0107100022C6
:1003230020A0221206EC30A0FD750BFF750C0275A0
:100333000D36900235E493F50E85430F7BFF7A0269
:10034300792F1204C52081221206EC3081FD750B32
:10035300FF750C02750D36900235E493F50E854357
:100363000F7BFF7A0279301204C520A3221206EC18
:1003730030A3FD750BFF750C02750D36900235E445
:1003830093F50E85430F7BFF7A0279311204C52062
:1003930082221206EC3082FD750BFF750C02750D7F
:1003A30036900235E493F50E85430F7BFF7A02798D
:1003B300321204C52094221206EC3094FD750BFF13
:1003C300750C02750D36900235E493F50E85430FD7
:1003D3007BFF7A0279331204C52080221206EC30A7
:1003E30080FD750BFF750C02750D36900235E49395
:0F03F300F50E85430F7BFF7A0279341204C52281
:0306C600E493FDBD
:0606C9008B088A09890A72
:1006CF00E4FEEEC39D5015AB08AA09A90A8E8275E8
:0C06DF008300120541FF12073B0E80E66D
:0106EB0022EC
:03000300020021D7
:0100210032AC
:030000000205D521
:0C05D500787FE4F6D8FD75814C02061C0E
:10054100BB010CE58229F582E5833AF583E022506F
:1005510006E92582F8E622BBFE06E92582F8E222B9
:0D056100E58229F582E5833AF583E49322D3
:10056E00EF8DF0A4A8F0CF8CF0A428CE8DF0A42EA1
:02057E00FE225B
:10058000BC000BBE0029EF8DF084FFADF022E4CC5F
:10059000F875F008EF2FFFEE33FEEC33FCEE9DEC28
:1005A000984005FCEE9DFE0FD5F0E9E4CEFD22ED6E
:1005B000F8F5F0EE8420D21CFEADF075F008EF2FB8
:1005C000FFED33FD4007985006D5F0F222C398FDA9
:0505D0000FD5F0EA2246
:1005E100020026E493A3F8E493A34003F68001F20A
:1005F10008DFF48029E493A3F85407240CC8C3331B
:10060100C4540F4420C8834004F456800146F6DFE9
:10061100E4800B0102040810204080900711E47E61
:10062100019360BCA3FF543F30E509541FFEE493DE
:10063100A360010ECF54C025E060A840B8E493A3A5
:10064100FAE493A3F8E493A3C8C582C8CAC583CAD0
:10065100F0A3C8C582C8CAC583CADFE9DEE780BE88
:0107310000C7
:00000001FF
