:100AD60000001B86188415D8149E125E105D0E94B5
:0B0AE6000DC301030508202080200440
:0C0AF100010E00010D00020B0000C1000E
:03001B00020A21B5
:100A2100C0E0C083C082C0D075D018AB0FAA10A996
:100A310011850D8275830012080025E024D6F58208
:100A4100E4340AF583E493FC740193FDECFF8F8D8C
:0E0A5100EDF58BB297D0D0D082D083D0E032BA
:03000B0002089454
:10089400C0E0C0F0C083C082C0D075D018D3E50CCE
:1008A4009400E50B94004010758C02758A71E50C78
:1008B400150C7002150B8060E50DC3950E400C7588
:1008C4000D00200008C28EC28C8002050D758C02BA
:1008D400758A71AB12AA13A914850D82758300124F
:1008E4000800FF7E00AC09AD0A12082D8E0B8F0C98
:1008F400AB0FAA10A911850D82758300120800257B
:10090400E024D6F582E4340AF583E493FC7401937D
:10091400FDECFF8F8DEDF58BD0D0D082D083D0F05D
:03092400D0E032EE
:100A9B0075083CE50875F020A4FFAEF07C277DC0FF
:100AAB00CFCDCFCECCCE12083F8E098F0A120A5F64
:100ABB007524FF75250A7526EC900AF0E493F5274B
:0B0ACB00D2027BFF7A0A79E80209B32F
:1009B30075891143A88AA2029200E4F50D85270EDA
:1009C3008B0F8A10891185241285251385261475AA
:1009D3008C02758A71AB12AA13A914850D82F58353
:1009E300120800FF7E00AC09AD0A12082D8E0B8F92
:1009F3000CAB0FAA10A911850D8275830012080094
:100A030025E024D6F582E4340AF583E493FC7401EB
:0E0A130093FDECFF8F8DEDF58BD28CD28E22F1
:100A5F005387BF75985053877FE4F5BA43A2407C04
:100A6F001824F0FD74FF3CFCE4F5BD8CBFAF05EF1F
:100A7F00F5BE75BD035391FE43920143910253920C
:0B0A8F00FDC20153B8EF53B7EFD2AC2B
:010A9A002239
:03002300020AFED0
:0D0AFE00309802C298309904C299C20132AA
:080B0B002001FDD2018F9922A7
:030B1300AF992275
:03000000020927CB
:0C092700787FE4F6D8FD75812702096E88
:10080000BB010CE58229F582E5833AF583E02250AD
:1008100006E92582F8E622BBFE06E92582F8E222F7
:0D082000E58229F582E5833AF583E4932211
:10082D00EF8DF0A4A8F0CF8CF0A428CE8DF0A42EDF
:02083D00FE2299
:10083F00BC000BBE0029EF8DF084FFADF022E4CC9D
:10084F00F875F008EF2FFFEE33FEEC33FCEE9DEC66
:10085F00984005FCEE9DFE0FD5F0E9E4CEFD22EDAC
:10086F00F8F5F0EE8420D21CFEADF075F008EF2FF6
:10087F00FFED33FD4007985006D5F0F222C398FDE7
:05088F000FD5F0EA2284
:10093300020A9BE493A3F8E493A34003F68001F235
:1009430008DFF48029E493A3F85407240CC8C333C5
:10095300C4540F4420C8834004F456800146F6DF94
:10096300E4800B0102040810204080900AF1E47E29
:10097300019360BCA3FF543F30E509541FFEE49389
:10098300A360010ECF54C025E060A840B8E493A350
:10099300FAE493A3F8E493A3C8C582C8CAC583CA7B
:1009A300F0A3C8C582C8CAC583CADFE9DEE780BE33
:010AFD0000F8
:00000001FF
