:100BD1000000EFA3EFA3EFA3EFA3EFA3EFA3EFA316
:100BE100E47AE610E77CE8DCEA28EB62EC8AEDA225
:100BF100EEAAEFA3F08EF16CF23DEFA3EFA3EFA30A
:100C0100EFA3EFA3EFA3080A0C0D0F110102080ACD
:0E0C11000C0F20204020045363616C65000529
:040CF80002240001D1
:100C5C005387BF75985053877FE4F5BA43A2407C05
:100C6C001824F0FD74FF3CFCE4F5BD8CBFAF05EF20
:100C7C00F5BE75BD035391FE43920143910253920D
:0B0C8C00FDC20053B8EF53B7EFD2AC2D
:010C9700223A
:03002300020CDEEE
:0D0CDE00309802C298309904C299C20032C9
:080CEB002000FDD2008F9922C8
:030CFD00AF99228A
:03001B00020C1FB5
:100C1F00C0E0C083C082C0D075D018AB2CAA2DA95C
:100C2F002E852A82758300120A3225E024D1F5829F
:100C3F00E4340BF583E493FC740193FDECF58DED37
:0D0C4F00F58BB297D0D0D082D083D0E032A8
:03000B0002099C4B
:10099C00C0E0C0F0C083C082C0D075D018C28ED366
:1009AC00E5299400E52894004010758CFE758A8F1B
:1009BC00E529152970021528805FE52AC3952B407F
:1009CC000C752A00200108C28EC28C8002052A7583
:1009DC008CFE758A8FAB2FAA30A931852A8275833C
:1009EC0000120A32FF7E00AC26AD27120A5F8E2859
:1009FC008F29AB2CAA2DA92E852A82758300120A69
:100A0C003225E024D1F582E4340BF583E493FC74B5
:100A1C000193FDECF58DEDF58BD28ED0D0D082D03C
:060A2C0083D0F0D0E0329F
:10080000E4F584F585F591F592F5A4F5A5D201F509
:1008100021F52275233CAC22AD237E277F10120ADE
:1008200071EF7805CEC313CE13D8F9FF7C007D3C61
:10083000120A5F8E268F27120C5CD2AFE52114605E
:1008400047146057146067240360030208DF120C2A
:10085000F3750BFF750C0C750D13900C17E493F5E5
:100860000E7BFF7A0C790F120B687BFF7A0C7918DC
:10087000900C1EE493FD120CBBD20120A1FD120CC2
:100880009830A1FD052180B4120CF3120B52D20155
:1008900020A1FD120C9830A1FD0521120CF3C2011C
:1008A0001208E520A1FA120C9830A1FD0521120CC6
:1008B000F3C201120B5220830C74FB2523F5237421
:1008C000FF3522F52220A20C74FB2523F52374FFAB
:1008D0003522F52220A1DF120C9830A1FD0521E47C
:0508E000F52102083CB7
:100B5200750B00750C00750D08900C0DE493F50EE5
:060B62007BFF7A0C79070D
:100B680075891143A88AE4F52A850E2B8B2C8A2DCA
:100B7800892E850B2F850C30850D31758CFE758A75
:100B88008FAB2FAA30A931852A82F583120A32FF4A
:100B98007E00AC26AD27120A5F8E288F29AB2CAABF
:100BA8002DA92E852A82758300120A3225E024D1C8
:100BB800F582E4340BF583E493FC740193FDECF5C2
:090BC8008DEDF58BD28CD28E224A
:050CF300C28CC28E223C
:040C98007F647E00F7
:040C9C00AB07AA06F2
:100CA0009000007C007D64AF03AE02120A5FC3E5D2
:0A0CB000829FE5839E5003A380E9B4
:010CBA002217
:1008E50020A009120C9830A0FD120B5220811F1276
:1008F5000C983081FD750B00750C00750D08900C7A
:100905000DE493F50E7BFF7A0C7908120B6820A392
:100915001F120C9830A3FD750B00750C00750D08A2
:10092500900C0DE493F50E7BFF7A0C7909120B6898
:1009350020821F120C983082FD750B00750C007516
:100945000D08900C0DE493F50E7BFF7A0C790A12D5
:100955000B6820941F120C983094FD750B00750CD4
:1009650000750D08900C0DE493F50E7BFF7A0C795C
:100975000B120B6820801F120C983080FD750B0040
:10098500750C00750D08900C0DE493F50E7BFF7A40
:070995000C790C120B682223
:060CBB008B088A09890A7A
:100CC100E4FEEEC39D5015AB08AA09A90A8E8275F0
:0C0CD1008300120A32FF120CEB0E80E6CA
:010CDD0022F4
:03000000020AC62B
:0C0AC600787FE4F6D8FD758131020B0D3D
:100A3200BB010CE58229F582E5833AF583E0225079
:100A420006E92582F8E622BBFE06E92582F8E222C3
:0D0A5200E58229F582E5833AF583E49322DD
:100A5F00EF8DF0A4A8F0CF8CF0A428CE8DF0A42EAB
:020A6F00FE2265
:100A7100BC000BBE0029EF8DF084FFADF022E4CC69
:100A8100F875F008EF2FFFEE33FEEC33FCEE9DEC32
:100A9100984005FCEE9DFE0FD5F0E9E4CEFD22ED78
:100AA100F8F5F0EE8420D21CFEADF075F008EF2FC2
:100AB100FFED33FD4007985006D5F0F222C398FDB3
:050AC1000FD5F0EA2250
:100AD200020800E493A3F8E493A34003F68001F232
:100AE20008DFF48029E493A3F85407240CC8C33325
:100AF200C4540F4420C8834004F456800146F6DFF4
:100B0200E4800B0102040810204080900CF8E47E7F
:100B1200019360BCA3FF543F30E509541FFEE493E8
:100B2200A360010ECF54C025E060A840B8E493A3AF
:100B3200FAE493A3F8E493A3C8C582C8CAC583CADA
:100B4200F0A3C8C582C8CAC583CADFE9DEE780BE92
:010CFC0000F7
:00000001FF
