:10022B000000F514F5B0F645F6D0F754F7D1F846C3
:10023B00F8B5F91EF981F9DEFA36FA8AFAD8FB22FB
:10024B00FB68FBAAFBE8FC23FC5AFC8FFCC0FCEF11
:10025B00FD1BFD45FD6CFD91FDB4FDD5FDF4FE11BF
:10026B00FE2DFE47FE60FE77FE8DFEA2FEB6FEC89B
:10027B00FEDAFEEAFEFAFF08FF16FF23FF30FF3B14
:10028B0008090B0C0E1001080404024D6574726F03
:10029B00544F4E4500090B0D0E1012141510101073
:1002AB001010101010085363616C650005090B0CDE
:1002BB00090B0C0E0B100C0E0B0C090B0808080885
:1002CB0008080808080808080808080808105468EF
:1002DB00726F756768207468652046697265206166
:0B02EB006E6420466C616D6573001BA3
:0A05EF0002281200012701012E006E
:10053C005387BF75985053877FE4F5BA43A240FDAB
:10054C007C1824F0FD74FF3CFCE4F5BD8CBFAF05BA
:10055C00EFF5BE75BD035391FE43920143910253D7
:0C056C0092FDC20053B8EF53B7EFD2ACC1
:010578002260
:0300230002000ECA
:0D000E00309802C298309904C299C20032A5
:080003002000FDD2008F9922BC
:03060300AF99228A
:03001B000205FAE1
:0905FA0085248D852F8BB2973208
:03000B000202F6F8
:1002F600C0E0C0F0C083C082C0D075D018D3E52B53
:100306009400E52A94004010758CFE758A8FE52BC3
:10031600152B707B152A8077052CE52CC3952D406F
:100326000B752C00E537B52E03852E36758CFE75BC
:100336008A8FAB33AA34A935852C827583001203C4
:10034600A0FF7E00AC25AD261203CD8E2A8F2BABE7
:1003560030AA31A932852C827583001203A025E0CC
:10036600242BF582E43402F583E493FC740193FDB7
:10037600ECF524EDF52F85248D852F8BED4C70043F
:10038600C28E8002D28EE536B52E04C28EC28CD0C5
:0A039600D0D082D083D0F0D0E03246
:10002600E4F584F585F591F592F5A4F5A5F521F5A8
:100036002275233C1205CD12053CD2AFE521146092
:10004600531470030200D81470030200F1240360F5
:10005600030201467522007523781205CD750BFF44
:10006600750C02750DC89002D8E493F50E85270F1E
:100076007BFF7A0279B81204C0120579C2A4D28530
:10008600D2A7D28620A1FD1205A830A1FD05211216
:10009600001E80A875220075233C1205CD750BFF46
:1000A600750C02750DA89002B0E493F50E85270F26
:1000B6007BFF7A0279A01204C0120579D2A4C28508
:1000C600D2A7D28620A1FD1205A830A1FD052112D6
:1000D600001E12014CD2A4D285C2A7D28620A1F25C
:1000E6001205A830A1FD052112001E750BFF750C27
:1000F60002750D93900295E493F50E85270F7B000C
:100106007A0079281204C0D2A4D285D2A7C286204A
:10011600830F74FB2523F52374FF3522F522120580
:10012600CD20A20E74052523F523E43522F52212EF
:1001360005CD20A1DA1205A830A1FD052112001E69
:06014600E4F52102004275
:1004C000850F3785273675891143A88AE4F52C8571
:1004D0000E2D8B308A318932850B33850C34850D96
:1004E00035758CFE758A8FAB33AA34A935852C827D
:1004F000F5831203A0FF7E00AC25AD261203CD8E3E
:100500002A8F2BAB30AA31A932852C827583001239
:1005100003A025E0242BF582E43402F583E493FC68
:10052000740193FDECF524EDF52F85248D852F8B3B
:0C053000D28CED4C7003C28E22D28E22C1
:1005CD00AC22AD237E277F101203DFEF7805CEC35B
:1005DD0013CE13D8F9FF7C007D3C1203CD8E258FF1
:0205ED002622C4
:05001E00C28CC28E221D
:0405A8007F647E00EE
:0405AC008E088F091D
:1005B000E4FBFAAE08AF097C007D641203CDC3EB07
:0C05C0009FEA9E50070BBB00010A80E779
:0105CC00220C
:10014C0020A0221205A830A0FD750BFF750C0275BE
:10015C000D92900291E493F50E852E0F7BFF7A029F
:10016C00798B1204C02081221205A83081FD750BF9
:10017C00FF750C02750D92900291E493F50E852E8D
:10018C000F7BFF7A02798C1204C020A3221205A8DF
:10019C0030A3FD750BFF750C02750D92900291E466
:1001AC0093F50E852E0F7BFF7A02798D1204C020F9
:1001BC0082221205A83082FD750BFF750C02750D9D
:1001CC0092900291E493F50E852E0F7BFF7A0279C3
:1001DC008E1204C02094221205A83094FD750BFFDA
:1001EC00750C02750D92900291E493F50E852E0F0D
:1001FC007BFF7A02798F1204C02080221205A8306E
:10020C0080FD750BFF750C02750D92900291E493B5
:0F021C00F50E852E0F7BFF7A0279901204C02217
:0C0579007BFF7A0279D99002F5E493FD33
:060585008B088A09890AB7
:10058B00E4FEEEC39D5015AB08AA09A90A8E82752D
:0C059B0083001203A0FF1200030E80E694
:0105A7002231
:03000000020434C3
:0C043400787FE4F6D8FD75813702047B68
:1003A000BB010CE58229F582E5833AF583E0225012
:1003B00006E92582F8E622BBFE06E92582F8E2225C
:0D03C000E58229F582E5833AF583E4932276
:1003CD00EF8DF0A4A8F0CF8CF0A428CE8DF0A42E44
:0203DD00FE22FE
:1003DF00BC000BBE0029EF8DF084FFADF022E4CC02
:1003EF00F875F008EF2FFFEE33FEEC33FCEE9DECCB
:1003FF00984005FCEE9DFE0FD5F0E9E4CEFD22ED11
:10040F00F8F5F0EE8420D21CFEADF075F008EF2F5A
:10041F00FFED33FD4007985006D5F0F222C398FD4B
:05042F000FD5F0EA22E8
:10044000020026E493A3F8E493A34003F68001F2AC
:1004500008DFF48029E493A3F85407240CC8C333BD
:10046000C4540F4420C8834004F456800146F6DF8C
:10047000E4800B01020408102040809005EFE47E28
:10048000019360BCA3FF543F30E509541FFEE49381
:10049000A360010ECF54C025E060A840B8E493A348
:1004A000FAE493A3F8E493A3C8C582C8CAC583CA73
:1004B000F0A3C8C582C8CAC583CADFE9DEE780BE2B
:0105F9000001
:00000001FF
