:04093700C101C10039
:03000B00020926C1
:09092600B29785178C85188A32FE
:03001B0002093C9B
:03093C00C28F3235
:10076700E4FFFE1207F4E4F584F591F5A475891109
:10077700D2ABD2A9D2AFD28C12023F1208BD20A3AE
:100787000E7F1412080230A3F81208D01205732046
:10079700800E7F141208023080F81208D012035816
:1007A70020A20E7F1412080230A2F81208D01200FD
:0607B7001E1208D080C5EF
:10023F007F321208E37F141200037F321208E37F2C
:10024F00141200037F3212000E7F141200037F324C
:10025F0012000E7F141200037F3212091B7F14123B
:10026F0000037F3212091B7F141200037F3212002A
:10027F000E7F231200037F321208FF7F1412000338
:10028F007F321208FF7F141200037F3212090D7F95
:10029F00141200037F3212090D7F141200037F32F4
:1002AF001208F17F141200037F321208F17F14122B
:1002BF0000037F321208E37F231200037F32120004
:1002CF000E7F141200037F3212000E7F14120003F0
:1002DF007F321208FF7F141200037F321208FF7F54
:1002EF00141200037F3212090D7F141200037F32A4
:1002FF0012090D7F141200037F321208F17F2312AF
:10030F0000037F3212000E7F141200037F3212009F
:10031F000E7F141200037F321208FF7F14120003A6
:10032F007F321208FF7F141200037F3212090D7FF4
:10033F00141200037F3212090D7F141200037F3253
:09034F001208F112092FD29722C5
:1008BD00C2A4C286C2A5C285C296C287C2A7C2847F
:0308CD00C2A6229E
:1008D000D2A4D286D2A5D285D296D287D2A7D284EC
:0308E000D2A6227B
:0E08E300C2A47517F275183D120840D2A42267
:0E08F100C2867517F37518BE120840D2862213
:0E08FF00C2967517F57518B1120840D29622F0
:0B000E00C2877517F612083DD287224A
:0B091B00C2A57517F712083DD2A522F7
:0E090D00C2847517F5751814120840D28422A2
:08000300C28C120840D28C22CD
:08092F00E4F517F518C28C2253
:0407FE00B2977F32FD
:020802008F0F56
:10080400E4F513F512F511F510AF0FE4FCFDFEABA2
:1008140013AA12A911A810C3120670501BE4FAF906
:10082400F8E5132401F513EA3512F512E93511F54B
:0808340011E83510F51080D128
:01083C002299
:08083D007518D1EF3395E0FEC0
:10084500E4FDFCC3ED9FEE6480F8EC648098501BDA
:10085500D2AB758911758BFE758D87D28E308FFD64
:0B086500C28EC28F0DBD00010C80D8B8
:010870002265
:100573001207BD7C007D0B12063A8D1CE4F51BC2ED
:1005830000051BC201E4F51D30010302062A3000F9
:100593000302062A20A36C7F1412080230A3F80575
:1005A3001DE51DB401051208D0C2A4E51DB4020562
:1005B3001208D0C286E51DB403051208D0C2A5E512
:1005C3001DB404051208D0C285E51DB40505120843
:1005D300D0C296E51DB406051208D0C287E51DB446
:1005E30007051208D0C2A7E51DB408051208D0C23A
:1005F30084E51DB409051208D0C2A6E51DB40A039B
:100603001208BD2094827F141208023094F8E51C6E
:10061300B51D05D200751B031208D0AD1DAF1C120A
:10062300046AD20102058BC3E51B648094835003E3
:070633000205841208D02229
:100358007508077509D0E4F50B7F1012080212071B
:10036800BD7C007D0412063A8D0A050AE50A64017F
:10037800707520A006E50B6401606C20A0251208AA
:10038800BDC3E508648094804014B2977F141208B6
:10039800021207FEE509150970E7150880E3D297F0
:1003A8000208D030821530A11230810F30940C3001
:1003B800830930A30630800320A2B7C2A4C3E5088E
:1003C800648094804018B2977F23120802B2977F06
:1003D80050120802E509150970E3150880DFD29765
:1003E8001208D0750B0122E50A6402707420A20677
:1003F800E50B6401606B20A2251208BDC3E5086403
:100408008094804014B2977F141208021207FEE508
:1004180009150970E7150880E3D2970208D03082E1
:100428001530A11230810F30940C30830930A306A7
:1004380030800320A0B7C2A6C3E50864809480403A
:1004480018B2977F23120802B2977F50120802E56C
:1004580009150970E3150880DFD2971208D0750BCB
:010468000192
:010469002270
:10001E001207BD7C007D0212063AAF05C2A6751905
:10002E0009E4F51A600302023EE5196409703120F5
:10003E0080101208D07F141208023080F8C2847526
:10004E0019082083101208D07F141208023083F88A
:10005E00C2877519067F14120802E519640960CF6C
:10006E00E5196408704420A3101208D07F141208FA
:10007E000230A3F8C2A77519072094101208D07F7A
:10008E00141208023094F8C29675190520A21012A7
:10009E0008D07F1412080230A2F8C2A67519097F83
:1000AE0014120802E519640860BCE5196407703182
:1000BE002081101208D07F141208023081F8C285F8
:1000CE007519042080101208D07F14120802308097
:1000DE00F8C2847519087F14120802E519640760C6
:1000EE00CFE5196406704420A2101208D07F1412B6
:1000FE00080230A2F8C2A67519092094101208D071
:10010E007F141208023094F8C29675190520A110BA
:10011E001208D07F1412080230A1F8C2A575190377
:10012E007F14120802E519640660BCE519640470B8
:10013E004720A3101208D07F1412080230A3F8C271
:10014E00A77519072094101208D07F1412080230D8
:10015E0094F8C29675190520A0131208D0C2A47F78
:10016E001412080230A0F81208977519017F1412A4
:10017E000802E519640460B9E51964037031208240
:10018E00101208D07F141208023082F8C286751938
:10019E00022083101208D07F141208023083F8C296
:1001AE00877519067F14120802E519640360CFE5FE
:1001BE00196402704720A0131208D0C2A47F141233
:1001CE00080230A0F8120897751901209410120831
:1001DE00D07F141208023094F8C29675190520A12A
:1001EE00101208D07F1412080230A1F8C2A575199A
:1001FE00037F14120802E519640260B9E519B4010F
:10020E00131208D07F1412080230A0F8C2A41208EC
:10021E0097751A01E519B405101208D07F1412084B
:10022E00023094F8C296020871E51A700302003784
:01023E00229D
:100871007508037509E8B2977F46120802E5091564
:100881000970021508C3E5086480948050E87FE888
:05089100120802D297DD
:01089600223F
:100897007508037509E8B2977F23120802E5091561
:1008A7000970021508C3E5086480948050E87FE862
:0508B700120802D297B7
:0108BC002219
:04046A008F088D0961
:10046E00750A07750BD0E4F50CF50D85090EE50838
:10047E0065097064D3E50E648094805003020572A2
:10048E00E4F50CF50DF50A750B641208BD7F8812A4
:10049E000802C3E50A6480948040141207FEB297E6
:1004AE007F64120802E50B150B70E7150A80E3D284
:1004BE00977F881208021208D0150EAE0CAF0DE40D
:1004CE00FCFD7B507AC3F9F8D312067040A6050DD9
:1004DE00E50D70E7050C80E3D3E5096480F8E508C7
:1004EE006480984035C2A4C286C2A5C287C2A6C384
:1004FE00E50A648094804011B2977F64120802E589
:10050E000B150B70EA150A80E67FE8120802D297E7
:10051E00D2A4D286D2A5D287D2A6C3E5096480F82A
:10052E00E508648098503DC2A4C286C2A5C296C298
:10053E00A7C284C2A6C3E50A648094804011B29714
:10054E007F0A120802E50B150B70EA150A80E67F8A
:10055E00E8120802D297D2A4D286D2A5D296D2A7FA
:04056E00D284D2A6BB
:010572002266
:030000000206DB1A
:0C06DB00787FE4F6D8FD75812402072228
:10063A00C2D5EC30E709B2D5E4C39DFDE49CFCEEDB
:10064A0030E715B2D5E4C39FFFE49EFE120686C3C7
:10065A00E49DFDE49CFC800312068630D507C3E4C2
:06066A009FFFE49EFE224A
:10067000EB9FF5F0EA9E42F0E99D42F0EC6480C801
:0606800064809845F022A1
:1007BD00AC21AD22AE23AF24780FEFA2E2EC20E600
:1007CD0001B35D5E5FF47004FCFDFEFFEF13FFEE01
:1007DD0013FEED13FDEC13FCD8E08C218D228E233E
:1007ED008F24EE547FFE228E218F22E4F523F524F3
:0107FD0022D9
:1006E700020767E493A3F8E493A34003F68001F2BB
:1006F70008DFF48029E493A3F85407240CC8C33314
:10070700C4540F4420C8834004F456800146F6DFE2
:10071700E4800B0102040810204080900937E47E32
:10072700019360BCA3FF543F30E509541FFEE493D7
:10073700A360010ECF54C025E060A840B8E493A39E
:10074700FAE493A3F8E493A3C8C582C8CAC583CAC9
:10075700F0A3C8C582C8CAC583CADFE9DEE780BE81
:01093B0000BB
:10068600BC000BBE0029EF8DF084FFADF022E4CC58
:10069600F875F008EF2FFFEE33FEEC33FCEE9DEC21
:1006A600984005FCEE9DFE0FD5F0E9E4CEFD22ED67
:1006B600F8F5F0EE8420D21CFEADF075F008EF2FB1
:1006C600FFED33FD4007985006D5F0F222C398FDA2
:0506D6000FD5F0EA223F
:00000001FF
